{"abi":[{"type":"constructor","inputs":[{"name":"_verifier","type":"address","internalType":"address"}],"stateMutability":"nonpayable"},{"type":"function","name":"getGameState","inputs":[],"outputs":[{"name":"active","type":"bool","internalType":"bool"},{"name":"commitment","type":"uint256","internalType":"uint256"},{"name":"root","type":"bytes32","internalType":"bytes32"}],"stateMutability":"view"},{"type":"function","name":"isGameActive","inputs":[],"outputs":[{"name":"","type":"bool","internalType":"bool"}],"stateMutability":"view"},{"type":"function","name":"merkleRoot","inputs":[],"outputs":[{"name":"","type":"bytes32","internalType":"bytes32"}],"stateMutability":"view"},{"type":"function","name":"secretCommitment","inputs":[],"outputs":[{"name":"","type":"uint256","internalType":"uint256"}],"stateMutability":"view"},{"type":"function","name":"startGame","inputs":[{"name":"_commitment","type":"uint256","internalType":"uint256"},{"name":"_merkleRoot","type":"bytes32","internalType":"bytes32"}],"outputs":[],"stateMutability":"nonpayable"},{"type":"function","name":"submitGuess","inputs":[{"name":"a","type":"uint256[2]","internalType":"uint256[2]"},{"name":"b","type":"uint256[2][2]","internalType":"uint256[2][2]"},{"name":"c","type":"uint256[2]","internalType":"uint256[2]"},{"name":"guess","type":"uint256","internalType":"uint256"},{"name":"isCorrect","type":"uint256","internalType":"uint256"},{"name":"merkleProof","type":"bytes32[]","internalType":"bytes32[]"}],"outputs":[],"stateMutability":"nonpayable"},{"type":"function","name":"verifier","inputs":[],"outputs":[{"name":"","type":"address","internalType":"contract Groth16Verifier"}],"stateMutability":"view"},{"type":"event","name":"GameStarted","inputs":[{"name":"commitment","type":"uint256","indexed":false,"internalType":"uint256"},{"name":"merkleRoot","type":"bytes32","indexed":false,"internalType":"bytes32"}],"anonymous":false},{"type":"event","name":"GuessSubmitted","inputs":[{"name":"player","type":"address","indexed":false,"internalType":"address"},{"name":"isCorrect","type":"bool","indexed":false,"internalType":"bool"}],"anonymous":false}],"bytecode":{"object":"0x608060405234801561000f575f5ffd5b50604051610e6c380380610e6c833981810160405281019061003191906100ed565b805f5f6101000a81548173ffffffffffffffffffffffffffffffffffffffff021916908373ffffffffffffffffffffffffffffffffffffffff1602179055505f5f60146101000a81548160ff02191690831515021790555050610118565b5f5ffd5b5f73ffffffffffffffffffffffffffffffffffffffff82169050919050565b5f6100bc82610093565b9050919050565b6100cc816100b2565b81146100d6575f5ffd5b50565b5f815190506100e7816100c3565b92915050565b5f602082840312156101025761010161008f565b5b5f61010f848285016100d9565b91505092915050565b610d47806101255f395ff3fe608060405234801561000f575f5ffd5b506004361061007b575f3560e01c80632eb4a7ab116100595780632eb4a7ab146100d9578063b7d0628b146100f7578063bfb51ac914610117578063dcd3af1e146101335761007b565b80630c0ef2b01461007f5780631f3739f01461009d5780632b7ac3f3146100bb575b5f5ffd5b61008761014f565b6040516100949190610588565b60405180910390f35b6100a5610161565b6040516100b291906105b9565b60405180910390f35b6100c3610167565b6040516100d0919061064c565b60405180910390f35b6100e161018b565b6040516100ee919061067d565b60405180910390f35b6100ff610191565b60405161010e93929190610696565b60405180910390f35b610131600480360381019061012c9190610727565b6101b4565b005b61014d60048036038101906101489190610808565b610268565b005b5f60149054906101000a900460ff1681565b60015481565b5f5f9054906101000a900473ffffffffffffffffffffffffffffffffffffffff1681565b60025481565b5f5f5f5f60149054906101000a900460ff16600154600254925092509250909192565b5f60149054906101000a900460ff1615610203576040517f08c379a00000000000000000000000000000000000000000000000000000000081526004016101fa90610910565b60405180910390fd5b816001819055508060028190555060015f60146101000a81548160ff0219169083151502179055507fb4a411a01bc386893734d83e17411a973f9dbb12732aff7a88d6964f1360b160828260405161025c92919061092e565b60405180910390a15050565b5f60149054906101000a900460ff166102b6576040517f08c379a00000000000000000000000000000000000000000000000000000000081526004016102ad9061099f565b60405180910390fd5b5f846040516020016102c891906105b9565b60405160208183030381529060405280519060200120905061032d8383808060200260200160405190810160405280939291908181526020018383602002808284375f81840152601f19601f82011690508083019250505050505050600254836104c9565b61036c576040517f08c379a000000000000000000000000000000000000000000000000000000000815260040161036390610a07565b60405180910390fd5b5f60405180602001604052808681525090505f5f5f9054906101000a900473ffffffffffffffffffffffffffffffffffffffff1673ffffffffffffffffffffffffffffffffffffffff166343753b4d8b8b8b866040518563ffffffff1660e01b81526004016103de9493929190610b9b565b602060405180830381865afa1580156103f9573d5f5f3e3d5ffd5b505050506040513d601f19601f8201168201806040525081019061041d9190610c0a565b90508061045f576040517f08c379a000000000000000000000000000000000000000000000000000000000815260040161045690610c7f565b60405180910390fd5b7f1bd668872b76fc0939f2f677679677a79428213897b4d9629f079411a0818da63360018814604051610493929190610cbd565b60405180910390a1600186036104bd575f5f60146101000a81548160ff0219169083151502179055505b50505050505050505050565b5f826104d585846104df565b1490509392505050565b5f5f8290505f5f90505b8451811015610525576105168286838151811061050957610508610ce4565b5b6020026020010151610530565b915080806001019150506104e9565b508091505092915050565b5f81831061054757610542828461055a565b610552565b610551838361055a565b5b905092915050565b5f825f528160205260405f20905092915050565b5f8115159050919050565b6105828161056e565b82525050565b5f60208201905061059b5f830184610579565b92915050565b5f819050919050565b6105b3816105a1565b82525050565b5f6020820190506105cc5f8301846105aa565b92915050565b5f73ffffffffffffffffffffffffffffffffffffffff82169050919050565b5f819050919050565b5f61061461060f61060a846105d2565b6105f1565b6105d2565b9050919050565b5f610625826105fa565b9050919050565b5f6106368261061b565b9050919050565b6106468161062c565b82525050565b5f60208201905061065f5f83018461063d565b92915050565b5f819050919050565b61067781610665565b82525050565b5f6020820190506106905f83018461066e565b92915050565b5f6060820190506106a95f830186610579565b6106b660208301856105aa565b6106c3604083018461066e565b949350505050565b5f5ffd5b5f5ffd5b6106dc816105a1565b81146106e6575f5ffd5b50565b5f813590506106f7816106d3565b92915050565b61070681610665565b8114610710575f5ffd5b50565b5f81359050610721816106fd565b92915050565b5f5f6040838503121561073d5761073c6106cb565b5b5f61074a858286016106e9565b925050602061075b85828601610713565b9150509250929050565b5f5ffd5b5f8190508260206002028201111561078457610783610765565b5b92915050565b5f819050826040600202820111156107a5576107a4610765565b5b92915050565b5f5ffd5b5f5ffd5b5f5f83601f8401126107c8576107c76107ab565b5b8235905067ffffffffffffffff8111156107e5576107e46107af565b5b60208301915083602082028301111561080157610800610765565b5b9250929050565b5f5f5f5f5f5f5f610160888a031215610824576108236106cb565b5b5f6108318a828b01610769565b97505060406108428a828b0161078a565b96505060c06108538a828b01610769565b9550506101006108658a828b016106e9565b9450506101206108778a828b016106e9565b93505061014088013567ffffffffffffffff811115610899576108986106cf565b5b6108a58a828b016107b3565b925092505092959891949750929550565b5f82825260208201905092915050565b7f47616d6520616c726561647920696e2070726f677265737300000000000000005f82015250565b5f6108fa6018836108b6565b9150610905826108c6565b602082019050919050565b5f6020820190508181035f830152610927816108ee565b9050919050565b5f6040820190506109415f8301856105aa565b61094e602083018461066e565b9392505050565b7f4e6f206163746976652067616d650000000000000000000000000000000000005f82015250565b5f610989600e836108b6565b915061099482610955565b602082019050919050565b5f6020820190508181035f8301526109b68161097d565b9050919050565b7f496e76616c6964204d65726b6c652070726f6f660000000000000000000000005f82015250565b5f6109f16014836108b6565b91506109fc826109bd565b602082019050919050565b5f6020820190508181035f830152610a1e816109e5565b9050919050565b82818337505050565b610a3a60408383610a25565b5050565b5f60029050919050565b5f81905092915050565b5f819050919050565b610a6760408383610a25565b5050565b5f610a768383610a5b565b60408301905092915050565b5f82905092915050565b5f604082019050919050565b610aa181610a3e565b610aab8184610a48565b9250610ab682610a52565b805f5b83811015610aee57610acb8284610a82565b610ad58782610a6b565b9650610ae083610a8c565b925050600181019050610ab9565b505050505050565b5f60019050919050565b5f81905092915050565b5f819050919050565b610b1c816105a1565b82525050565b5f610b2d8383610b13565b60208301905092915050565b5f602082019050919050565b610b4e81610af6565b610b588184610b00565b9250610b6382610b0a565b805f5b83811015610b93578151610b7a8782610b22565b9650610b8583610b39565b925050600181019050610b66565b505050505050565b5f61012082019050610baf5f830187610a2e565b610bbc6040830186610a98565b610bc960c0830185610a2e565b610bd7610100830184610b45565b95945050505050565b610be98161056e565b8114610bf3575f5ffd5b50565b5f81519050610c0481610be0565b92915050565b5f60208284031215610c1f57610c1e6106cb565b5b5f610c2c84828501610bf6565b91505092915050565b7f496e76616c6964207a65726f2d6b6e6f776c656467652070726f6f66000000005f82015250565b5f610c69601c836108b6565b9150610c7482610c35565b602082019050919050565b5f6020820190508181035f830152610c9681610c5d565b9050919050565b5f610ca7826105d2565b9050919050565b610cb781610c9d565b82525050565b5f604082019050610cd05f830185610cae565b610cdd6020830184610579565b9392505050565b7f4e487b71000000000000000000000000000000000000000000000000000000005f52603260045260245ffdfea2646970667358221220f9604a948973fbfcbd64b435ca2e6e63ac171e7f4e70d4327edd87640344b3b164736f6c634300081c0033","linkReferences":{}},"methodIdentifiers":{"getGameState()":"b7d0628b","isGameActive()":"0c0ef2b0","merkleRoot()":"2eb4a7ab","secretCommitment()":"1f3739f0","startGame(uint256,bytes32)":"bfb51ac9","submitGuess(uint256[2],uint256[2][2],uint256[2],uint256,uint256,bytes32[])":"dcd3af1e","verifier()":"2b7ac3f3"},"id":20}