{"abi":[{"type":"constructor","inputs":[{"name":"_verifier","type":"address","internalType":"address"}],"stateMutability":"nonpayable"},{"type":"function","name":"getGameState","inputs":[],"outputs":[{"name":"active","type":"bool","internalType":"bool"},{"name":"commitment","type":"uint256","internalType":"uint256"}],"stateMutability":"view"},{"type":"function","name":"isGameActive","inputs":[],"outputs":[{"name":"","type":"bool","internalType":"bool"}],"stateMutability":"view"},{"type":"function","name":"secretCommitment","inputs":[],"outputs":[{"name":"","type":"uint256","internalType":"uint256"}],"stateMutability":"view"},{"type":"function","name":"startGame","inputs":[{"name":"commitment","type":"uint256","internalType":"uint256"}],"outputs":[],"stateMutability":"nonpayable"},{"type":"function","name":"submitGuess","inputs":[{"name":"a","type":"uint256[2]","internalType":"uint256[2]"},{"name":"b","type":"uint256[2][2]","internalType":"uint256[2][2]"},{"name":"c","type":"uint256[2]","internalType":"uint256[2]"},{"name":"guess","type":"uint256","internalType":"uint256"},{"name":"isCorrect","type":"uint256","internalType":"uint256"}],"outputs":[],"stateMutability":"nonpayable"},{"type":"function","name":"verifier","inputs":[],"outputs":[{"name":"","type":"address","internalType":"contract Groth16Verifier"}],"stateMutability":"view"},{"type":"event","name":"GameStarted","inputs":[{"name":"commitment","type":"uint256","indexed":false,"internalType":"uint256"}],"anonymous":false},{"type":"event","name":"GuessSubmitted","inputs":[{"name":"player","type":"address","indexed":false,"internalType":"address"},{"name":"isCorrect","type":"bool","indexed":false,"internalType":"bool"}],"anonymous":false}],"bytecode":{"object":"0x608060405234801561000f575f5ffd5b50604051610af0380380610af0833981810160405281019061003191906100ed565b805f5f6101000a81548173ffffffffffffffffffffffffffffffffffffffff021916908373ffffffffffffffffffffffffffffffffffffffff1602179055505f60025f6101000a81548160ff02191690831515021790555050610118565b5f5ffd5b5f73ffffffffffffffffffffffffffffffffffffffff82169050919050565b5f6100bc82610093565b9050919050565b6100cc816100b2565b81146100d6575f5ffd5b50565b5f815190506100e7816100c3565b92915050565b5f602082840312156101025761010161008f565b5b5f61010f848285016100d9565b91505092915050565b6109cb806101255f395ff3fe608060405234801561000f575f5ffd5b5060043610610060575f3560e01c80630c0ef2b0146100645780631f3739f014610082578063267a8603146100a05780632b7ac3f3146100bc578063b7d0628b146100da578063e5ed1d59146100f9575b5f5ffd5b61006c610115565b60405161007991906103d9565b60405180910390f35b61008a610127565b604051610097919061040a565b60405180910390f35b6100ba60048036038101906100b59190610497565b61012d565b005b6100c46102d5565b6040516100d1919061058b565b60405180910390f35b6100e26102f9565b6040516100f09291906105a4565b60405180910390f35b610113600480360381019061010e91906105cb565b610315565b005b60025f9054906101000a900460ff1681565b60015481565b60025f9054906101000a900460ff1661017b576040517f08c379a000000000000000000000000000000000000000000000000000000000815260040161017290610650565b60405180910390fd5b5f60405180602001604052808381525090505f5f5f9054906101000a900473ffffffffffffffffffffffffffffffffffffffff1673ffffffffffffffffffffffffffffffffffffffff166343753b4d888888866040518563ffffffff1660e01b81526004016101ed94939291906107e4565b602060405180830381865afa158015610208573d5f5f3e3d5ffd5b505050506040513d601f19601f8201168201806040525081019061022c9190610853565b90508061026e576040517f08c379a0000000000000000000000000000000000000000000000000000000008152600401610265906108c8565b60405180910390fd5b7f1bd668872b76fc0939f2f677679677a79428213897b4d9629f079411a0818da633600185146040516102a2929190610906565b60405180910390a1600183036102cc575f60025f6101000a81548160ff0219169083151502179055505b50505050505050565b5f5f9054906101000a900473ffffffffffffffffffffffffffffffffffffffff1681565b5f5f60025f9054906101000a900460ff16600154915091509091565b60025f9054906101000a900460ff1615610364576040517f08c379a000000000000000000000000000000000000000000000000000000000815260040161035b90610977565b60405180910390fd5b80600181905550600160025f6101000a81548160ff0219169083151502179055507f50ad08f58a27f2851d7e3a1b3a6a46b290f2ce677e99642d30ff639721e77790816040516103b4919061040a565b60405180910390a150565b5f8115159050919050565b6103d3816103bf565b82525050565b5f6020820190506103ec5f8301846103ca565b92915050565b5f819050919050565b610404816103f2565b82525050565b5f60208201905061041d5f8301846103fb565b92915050565b5f5ffd5b5f5ffd5b5f8190508260206002028201111561044657610445610427565b5b92915050565b5f8190508260406002028201111561046757610466610427565b5b92915050565b610476816103f2565b8114610480575f5ffd5b50565b5f813590506104918161046d565b92915050565b5f5f5f5f5f61014086880312156104b1576104b0610423565b5b5f6104be8882890161042b565b95505060406104cf8882890161044c565b94505060c06104e08882890161042b565b9350506101006104f288828901610483565b92505061012061050488828901610483565b9150509295509295909350565b5f73ffffffffffffffffffffffffffffffffffffffff82169050919050565b5f819050919050565b5f61055361054e61054984610511565b610530565b610511565b9050919050565b5f61056482610539565b9050919050565b5f6105758261055a565b9050919050565b6105858161056b565b82525050565b5f60208201905061059e5f83018461057c565b92915050565b5f6040820190506105b75f8301856103ca565b6105c460208301846103fb565b9392505050565b5f602082840312156105e0576105df610423565b5b5f6105ed84828501610483565b91505092915050565b5f82825260208201905092915050565b7f4e6f206163746976652067616d650000000000000000000000000000000000005f82015250565b5f61063a600e836105f6565b915061064582610606565b602082019050919050565b5f6020820190508181035f8301526106678161062e565b9050919050565b82818337505050565b6106836040838361066e565b5050565b5f60029050919050565b5f81905092915050565b5f819050919050565b6106b06040838361066e565b5050565b5f6106bf83836106a4565b60408301905092915050565b5f82905092915050565b5f604082019050919050565b6106ea81610687565b6106f48184610691565b92506106ff8261069b565b805f5b838110156107375761071482846106cb565b61071e87826106b4565b9650610729836106d5565b925050600181019050610702565b505050505050565b5f60019050919050565b5f81905092915050565b5f819050919050565b610765816103f2565b82525050565b5f610776838361075c565b60208301905092915050565b5f602082019050919050565b6107978161073f565b6107a18184610749565b92506107ac82610753565b805f5b838110156107dc5781516107c3878261076b565b96506107ce83610782565b9250506001810190506107af565b505050505050565b5f610120820190506107f85f830187610677565b61080560408301866106e1565b61081260c0830185610677565b61082061010083018461078e565b95945050505050565b610832816103bf565b811461083c575f5ffd5b50565b5f8151905061084d81610829565b92915050565b5f6020828403121561086857610867610423565b5b5f6108758482850161083f565b91505092915050565b7f496e76616c69642070726f6f66000000000000000000000000000000000000005f82015250565b5f6108b2600d836105f6565b91506108bd8261087e565b602082019050919050565b5f6020820190508181035f8301526108df816108a6565b9050919050565b5f6108f082610511565b9050919050565b610900816108e6565b82525050565b5f6040820190506109195f8301856108f7565b61092660208301846103ca565b9392505050565b7f47616d6520616c726561647920696e2070726f677265737300000000000000005f82015250565b5f6109616018836105f6565b915061096c8261092d565b602082019050919050565b5f6020820190508181035f83015261098e81610955565b905091905056fea2646970667358221220b45f32eba6542c7a707042d2d8cfdbd141fab6531cf7f7b39ce6c7c733846a0664736f6c634300081c0033","linkReferences":{}},"methodIdentifiers":{"getGameState()":"b7d0628b","isGameActive()":"0c0ef2b0","secretCommitment()":"1f3739f0","startGame(uint256)":"e5ed1d59","submitGuess(uint256[2],uint256[2][2],uint256[2],uint256,uint256)":"267a8603","verifier()":"2b7ac3f3"},"id":17}